{
  "contractName": "Owned",
  "abi": [
    {
      "constant": false,
      "inputs": [],
      "name": "acceptOwnership",
      "outputs": [],
      "payable": false,
      "stateMutability": "nonpayable",
      "type": "function"
    },
    {
      "constant": true,
      "inputs": [],
      "name": "Owner",
      "outputs": [
        {
          "name": "",
          "type": "address"
        }
      ],
      "payable": false,
      "stateMutability": "view",
      "type": "function"
    },
    {
      "constant": false,
      "inputs": [
        {
          "name": "_newOwner",
          "type": "address"
        }
      ],
      "name": "transferOwnership",
      "outputs": [],
      "payable": false,
      "stateMutability": "nonpayable",
      "type": "function"
    },
    {
      "inputs": [],
      "payable": false,
      "stateMutability": "nonpayable",
      "type": "constructor"
    },
    {
      "anonymous": false,
      "inputs": [
        {
          "indexed": false,
          "name": "_oldOwner",
          "type": "address"
        },
        {
          "indexed": false,
          "name": "_newOwner",
          "type": "address"
        }
      ],
      "name": "OwnerUpdate",
      "type": "event"
    }
  ],
  "bytecode": "0x6060604052341561000f57600080fd5b336000806101000a81548173ffffffffffffffffffffffffffffffffffffffff021916908373ffffffffffffffffffffffffffffffffffffffff1602179055506104058061005e6000396000f300606060405260043610610057576000357c0100000000000000000000000000000000000000000000000000000000900463ffffffff16806379ba50971461005c578063b4a99a4e14610071578063f2fde38b146100c6575b600080fd5b341561006757600080fd5b61006f6100ff565b005b341561007c57600080fd5b6100846102b9565b604051808273ffffffffffffffffffffffffffffffffffffffff1673ffffffffffffffffffffffffffffffffffffffff16815260200191505060405180910390f35b34156100d157600080fd5b6100fd600480803573ffffffffffffffffffffffffffffffffffffffff169060200190919050506102de565b005b600160009054906101000a900473ffffffffffffffffffffffffffffffffffffffff1673ffffffffffffffffffffffffffffffffffffffff163373ffffffffffffffffffffffffffffffffffffffff1614151561015b57600080fd5b7f343765429aea5a34b3ff6a3785a98a5abb2597aca87bfbb58632c173d585373a6000809054906101000a900473ffffffffffffffffffffffffffffffffffffffff1633604051808373ffffffffffffffffffffffffffffffffffffffff1673ffffffffffffffffffffffffffffffffffffffff1681526020018273ffffffffffffffffffffffffffffffffffffffff1673ffffffffffffffffffffffffffffffffffffffff1681526020019250505060405180910390a1600160009054906101000a900473ffffffffffffffffffffffffffffffffffffffff166000806101000a81548173ffffffffffffffffffffffffffffffffffffffff021916908373ffffffffffffffffffffffffffffffffffffffff1602179055506000600160006101000a81548173ffffffffffffffffffffffffffffffffffffffff021916908373ffffffffffffffffffffffffffffffffffffffff160217905550565b6000809054906101000a900473ffffffffffffffffffffffffffffffffffffffff1681565b3373ffffffffffffffffffffffffffffffffffffffff166000809054906101000a900473ffffffffffffffffffffffffffffffffffffffff1673ffffffffffffffffffffffffffffffffffffffff1614151561033957600080fd5b8073ffffffffffffffffffffffffffffffffffffffff166000809054906101000a900473ffffffffffffffffffffffffffffffffffffffff1673ffffffffffffffffffffffffffffffffffffffff161415151561039557600080fd5b80600160006101000a81548173ffffffffffffffffffffffffffffffffffffffff021916908373ffffffffffffffffffffffffffffffffffffffff160217905550505600a165627a7a72305820189f12b621f4ad8e6f01728cd7fb03bbe3924313476c2b91b2f7f485869917100029",
  "source": "\npragma solidity ^0.4.18;\n\ncontract Owned {\n\taddress public Owner;\n\taddress private newOwner;\n\n\tevent OwnerUpdate(address _oldOwner, address _newOwner); \n\t\n\tfunction Owned() public {\n\t\tOwner = msg.sender;\n\t}\n\n\tmodifier onlyOwner {\n\t\trequire(Owner == msg.sender);\n\t\t_;\n\t}\n\t\n\tfunction transferOwnership(address _newOwner) public onlyOwner {\n\t\trequire(Owner != _newOwner);\n\t\tnewOwner = _newOwner;\n\t}\n\n\tfunction acceptOwnership() public {\n\t\trequire(msg.sender == newOwner);\n\n\t\tOwnerUpdate(Owner, msg.sender);\t\n\t\tOwner = newOwner;\n\t\tnewOwner = 0x0;\n\t}\n}\n\n",
  "sourcePath": "/coin/mycoin/contracts/Owned.sol",
  "compiler": {
    "name": "solc",
    "version": "0.4.18+commit.9cf6e910.Emscripten.clang"
  },
  "schemaVersion": "1.0.1",
  "updatedAt": "2017-11-23T07:46:18.314Z"
}